{
  "contractName": "Minter",
  "abi": [
    {
      "constant": true,
      "inputs": [],
      "name": "dateTimeContract",
      "outputs": [
        {
          "name": "",
          "type": "address"
        }
      ],
      "payable": false,
      "stateMutability": "view",
      "type": "function"
    },
    {
      "constant": true,
      "inputs": [],
      "name": "lastMintingAmount",
      "outputs": [
        {
          "name": "",
          "type": "uint256"
        }
      ],
      "payable": false,
      "stateMutability": "view",
      "type": "function"
    },
    {
      "constant": true,
      "inputs": [],
      "name": "florestinhaToken",
      "outputs": [
        {
          "name": "",
          "type": "address"
        }
      ],
      "payable": false,
      "stateMutability": "view",
      "type": "function"
    },
    {
      "constant": true,
      "inputs": [],
      "name": "owner",
      "outputs": [
        {
          "name": "",
          "type": "address"
        }
      ],
      "payable": false,
      "stateMutability": "view",
      "type": "function"
    },
    {
      "constant": false,
      "inputs": [
        {
          "name": "newOwner",
          "type": "address"
        }
      ],
      "name": "transferOwnership",
      "outputs": [
        {
          "name": "_owner",
          "type": "address"
        }
      ],
      "payable": false,
      "stateMutability": "nonpayable",
      "type": "function"
    },
    {
      "constant": true,
      "inputs": [],
      "name": "lastMintingPeriod",
      "outputs": [
        {
          "name": "",
          "type": "uint256"
        }
      ],
      "payable": false,
      "stateMutability": "view",
      "type": "function"
    },
    {
      "inputs": [
        {
          "name": "_ownerContract",
          "type": "address"
        },
        {
          "name": "_lastMintingAmount",
          "type": "uint256"
        },
        {
          "name": "_dateTimeContract",
          "type": "address"
        }
      ],
      "payable": false,
      "stateMutability": "nonpayable",
      "type": "constructor"
    },
    {
      "constant": true,
      "inputs": [],
      "name": "calculateMintAmount",
      "outputs": [
        {
          "name": "amount",
          "type": "uint256"
        }
      ],
      "payable": false,
      "stateMutability": "view",
      "type": "function"
    },
    {
      "constant": false,
      "inputs": [],
      "name": "mint",
      "outputs": [
        {
          "name": "success",
          "type": "bool"
        }
      ],
      "payable": false,
      "stateMutability": "nonpayable",
      "type": "function"
    }
  ],
  "bytecode": "0x6080604052600060045534801561001557600080fd5b506040516060806107d3833981018060405281019080805190602001909291908051906020019092919080519060200190929190505050336000806101000a81548173ffffffffffffffffffffffffffffffffffffffff021916908373ffffffffffffffffffffffffffffffffffffffff16021790555082600160006101000a81548173ffffffffffffffffffffffffffffffffffffffff021916908373ffffffffffffffffffffffffffffffffffffffff1602179055508160038190555080600260006101000a81548173ffffffffffffffffffffffffffffffffffffffff021916908373ffffffffffffffffffffffffffffffffffffffff1602179055505050506106ac806101276000396000f30060806040526004361061008e576000357c0100000000000000000000000000000000000000000000000000000000900463ffffffff168063120e8f05146100935780631249c58b146100be578063205cd37b146100ed57806358d37dc514610144578063857de8fa1461016f5780638da5cb5b146101c6578063f2fde38b1461021d578063fb0cb1cc146102a0575b600080fd5b34801561009f57600080fd5b506100a86102cb565b6040518082815260200191505060405180910390f35b3480156100ca57600080fd5b506100d36102e6565b604051808215151515815260200191505060405180910390f35b3480156100f957600080fd5b5061010261053d565b604051808273ffffffffffffffffffffffffffffffffffffffff1673ffffffffffffffffffffffffffffffffffffffff16815260200191505060405180910390f35b34801561015057600080fd5b50610159610563565b6040518082815260200191505060405180910390f35b34801561017b57600080fd5b50610184610569565b604051808273ffffffffffffffffffffffffffffffffffffffff1673ffffffffffffffffffffffffffffffffffffffff16815260200191505060405180910390f35b3480156101d257600080fd5b506101db61058f565b604051808273ffffffffffffffffffffffffffffffffffffffff1673ffffffffffffffffffffffffffffffffffffffff16815260200191505060405180910390f35b34801561022957600080fd5b5061025e600480360381019080803573ffffffffffffffffffffffffffffffffffffffff1690602001909291905050506105b4565b604051808273ffffffffffffffffffffffffffffffffffffffff1673ffffffffffffffffffffffffffffffffffffffff16815260200191505060405180910390f35b3480156102ac57600080fd5b506102b561067a565b6040518082815260200191505060405180910390f35b6000612710612837600354028115156102e057fe5b04905090565b6000806000809054906101000a900473ffffffffffffffffffffffffffffffffffffffff1673ffffffffffffffffffffffffffffffffffffffff163373ffffffffffffffffffffffffffffffffffffffff1614151561034457600080fd5b61034c6102cb565b9050600160009054906101000a900473ffffffffffffffffffffffffffffffffffffffff1673ffffffffffffffffffffffffffffffffffffffff1663356e7e9d33836040518363ffffffff167c0100000000000000000000000000000000000000000000000000000000028152600401808373ffffffffffffffffffffffffffffffffffffffff1673ffffffffffffffffffffffffffffffffffffffff16815260200182815260200192505050602060405180830381600087803b15801561041357600080fd5b505af1158015610427573d6000803e3d6000fd5b505050506040513d602081101561043d57600080fd5b810190808051906020019092919050505050600160009054906101000a900473ffffffffffffffffffffffffffffffffffffffff1673ffffffffffffffffffffffffffffffffffffffff1663d5dbe634826040518263ffffffff167c010000000000000000000000000000000000000000000000000000000002815260040180828152602001915050602060405180830381600087803b1580156104e057600080fd5b505af11580156104f4573d6000803e3d6000fd5b505050506040513d602081101561050a57600080fd5b81019080805190602001909291905050505080600381905550600460008154809291906001019190505550600191505090565b600260009054906101000a900473ffffffffffffffffffffffffffffffffffffffff1681565b60035481565b600160009054906101000a900473ffffffffffffffffffffffffffffffffffffffff1681565b6000809054906101000a900473ffffffffffffffffffffffffffffffffffffffff1681565b60008060009054906101000a900473ffffffffffffffffffffffffffffffffffffffff1673ffffffffffffffffffffffffffffffffffffffff163373ffffffffffffffffffffffffffffffffffffffff1614151561061157600080fd5b816000806101000a81548173ffffffffffffffffffffffffffffffffffffffff021916908373ffffffffffffffffffffffffffffffffffffffff1602179055506000809054906101000a900473ffffffffffffffffffffffffffffffffffffffff169050919050565b600454815600a165627a7a72305820f415b92834605d1fb661c20d48c67490de0385df88216b3de2d24349344f8eeb0029",
  "source": "/*\nPublished at:\n1. 0xAfb1ae4D14e842CacFE44c1911a0b4542D54595c\n2. 0xab705e15925d411dafc5927b7803c9da54e50334\n*/\n\npragma solidity ^0.4.16;\n\nimport \"./FlorestinhaToken.sol\";\nimport \"./Owned.sol\";\nimport \"./DateTime.sol\";\n\n\n/* constructor params\n\"0x08970fed061e7747cd9a38d680a601510cb659fb\", 36139470081, \"0x9dd1e8169e76a9226b07ab9f85cc20a5e1ed44dd\"\n*/\ncontract Minter is Owned {\n\n FlorestinhaToken public florestinhaToken;\n  DateTime public dateTimeContract;\n\n  uint256 public lastMintingAmount;\n  uint256 public lastMintingPeriod = 0;\n\n  function Minter (address _ownerContract,\n                   uint256 _lastMintingAmount,\n                   address _dateTimeContract) public {\n    florestinhaToken = FlorestinhaToken(_ownerContract);\n    lastMintingAmount = _lastMintingAmount;\n    dateTimeContract = DateTime(_dateTimeContract);\n\n  }\n\n  // increases 2.95% from last minting\n  function calculateMintAmount() public view returns (uint256 amount){\n   return lastMintingAmount * 10295 / 10000;\n  }\n\n  function mint() onlyOwner public returns (bool success) {\n    uint256 value = calculateMintAmount();\n\n    florestinhaToken.mintToAccount(msg.sender, value);\n    florestinhaToken.incrementTotalSupply(value);  \n\n    lastMintingAmount = value;\n    lastMintingPeriod++;\n\n    return true;\n  }\n}\n",
  "sourcePath": "/Users/Dax/Projetos/Ethereum/florestinha-token/contracts/MinterNoDateControl.sol",
  "compiler": {
    "name": "solc",
    "version": "0.4.24+commit.e67f0147.Emscripten.clang"
  },
  "schemaVersion": "2.0.0",
  "updatedAt": "2018-07-04T19:18:50.132Z"
}