{
  "contractName": "Multisend",
  "abi": [
    {
      "constant": true,
      "inputs": [
        {
          "name": "",
          "type": "address"
        }
      ],
      "name": "nonces",
      "outputs": [
        {
          "name": "",
          "type": "uint256"
        }
      ],
      "payable": false,
      "stateMutability": "view",
      "type": "function"
    },
    {
      "inputs": [],
      "payable": false,
      "stateMutability": "nonpayable",
      "type": "constructor"
    },
    {
      "constant": false,
      "inputs": [
        {
          "name": "addrs",
          "type": "address[]"
        },
        {
          "name": "amounts",
          "type": "uint256[]"
        },
        {
          "name": "nonce",
          "type": "uint256"
        }
      ],
      "name": "send",
      "outputs": [],
      "payable": true,
      "stateMutability": "payable",
      "type": "function"
    }
  ],
  "bytecode": "0x608060405234801561001057600080fd5b5033600160006101000a81548173ffffffffffffffffffffffffffffffffffffffff021916908373ffffffffffffffffffffffffffffffffffffffff160217905550610353806100616000396000f30060806040526004361061004c576000357c0100000000000000000000000000000000000000000000000000000000900463ffffffff1680637ecebe0014610051578063d6006e88146100a8575b600080fd5b34801561005d57600080fd5b50610092600480360381019080803573ffffffffffffffffffffffffffffffffffffffff16906020019092919050505061014e565b6040518082815260200191505060405180910390f35b61014c600480360381019080803590602001908201803590602001908080602002602001604051908101604052809392919081815260200183836020028082843782019150505050505091929192908035906020019082018035906020019080806020026020016040519081016040528093929190818152602001838360200280828437820191505050505050919291929080359060200190929190505050610166565b005b60006020528060005260406000206000915090505481565b600080835185511480156101b757506000803373ffffffffffffffffffffffffffffffffffffffff1673ffffffffffffffffffffffffffffffffffffffff1681526020019081526020016000205483145b15156101c257600080fd5b349150600090505b845181101561028b5783818151811015156101e157fe5b9060200190602002015182101515156101f957600080fd5b848181518110151561020757fe5b9060200190602002015173ffffffffffffffffffffffffffffffffffffffff166108fc858381518110151561023857fe5b906020019060200201519081150290604051600060405180830381858888f193505050501561027e57838181518110151561026f57fe5b90602001906020020151820391505b80806001019150506101ca565b3373ffffffffffffffffffffffffffffffffffffffff166108fc839081150290604051600060405180830381858888f193505050501580156102d1573d6000803e3d6000fd5b506000803373ffffffffffffffffffffffffffffffffffffffff1673ffffffffffffffffffffffffffffffffffffffff1681526020019081526020016000206000815480929190600101919050555050505050505600a165627a7a7230582083576994ff7efa5486f7f028e76e5d3e1d259de4a1efc1d5f261ba89fe98b27e0029",
  "source": "// Publicado em: 0x376F0eB80530AB03bE79d34eA2f65EFEE8Bf4e69\n\npragma solidity ^0.4.16;\n\ncontract Multisend {\n    mapping(address => uint) public nonces;\n    address creator;\n\n    function Multisend () {\n        creator = msg.sender;\n    }\n\n    function send(address[] addrs, uint[] amounts, uint nonce) payable public {\n        require(addrs.length == amounts.length && nonce == nonces[msg.sender]);\n        uint val = msg.value;\n\n        for(uint i = 0; i<addrs.length; i++){\n            require(val >= amounts[i]);\n            if(addrs[i].send(amounts[i])){\n                val -= amounts[i];\n            }\n        }\n        msg.sender.transfer(val);\n        nonces[msg.sender]++;\n    }\n}\n",
  "sourcePath": "/Users/Dax/Projetos/Ethereum/florestinha-token/contracts/Multisend.sol",
  "compiler": {
    "name": "solc",
    "version": "0.4.24+commit.e67f0147.Emscripten.clang"
  },
  "schemaVersion": "2.0.0",
  "updatedAt": "2018-07-04T19:13:33.569Z"
}